:100000000C9474100C94A5100C94A5100C94A510CD
:100010000C94A5100C94A5100C94A5100C94A5108C
:100020000C94A5100C94A5100C94A5100C94A5107C
:100030000C94A5100C94A5100C94A5100C94A5106C
:100040000C94A5100C943B990C94A5100C94A5103D
:100050000C94A5100C94A5100C94718A0C94337B0D
:100060000C94A5100C94284A0C941E4A0C94A510CC
:100070000C94A5100C94A5100C94A5100C94A5102C
:100080000C94A5100C94A5100C94A5100C94A5101C
:100090000C94A5100C94A5100C94A5100C94A5100C
:1000A0000C94A5100C94A5100C94A5100C94A510FC
:1000B0000C94A5100C94A5100C94A5100C94A510EC
:1000C0000C94A5100C94A5100C94A5100C94A510DC
:1000D0000C94A5100C94A5100C94A5100C94A510CC
:1000E0000C94A510084AD73B3BCE016E84BCBFFDE3
:1000F000C12F3D6C74319ABD56833DDA3D00C77FF8
:1001000011BED9E4BB4C3E916BAAAABE0000008090
:100110003F05A84CCDB2D44EB93836A9020C50B91F
:10012000918688083CA6AAAA2ABE000000803F004B
:100130000C94A14A0C947F630C946EAB0C94B34A5C
:100140000C94C34A0C94F1780C947B630C94634A2E
:100150000C9464630C9468630C94CE780C948D6357
:100160000C940F790C94E7780C945C630C94C4782D
:100170000C947F780C94FB780C9460630C949B63D4
:100180000C948C780C9419790C9445630C9424B3DA
:100190000C9475630C94AA780C9483630C9471632B
:1001A0000C94AC4A0C946B630C94BA780C94BF4AD0
:1001B0000C944A630C94D8780C9489630C94057958
:1001C0000C9497630C94924A0C9491630C94B74AE4
:1001D0000C94A0780C94B2780C9487780C94967850
:1001E0000C94BB4A0C94CB4A4E414E494E4954594B
:1001F000494E46CDCCCC3D0AD7233C17B7D13877F2
:10020000CC2B329595E6241FB14F0A000020410007
:1002100000C84200401C4620BCBE4CCA1B0E5AAE51
:10022000C59D74434F4D4D554E49434154494F4E22
:100230000044525952554E004552524F52530049B4
:100240004E464F004543484F004572726F7220770B
:10025000726974696E6720746F20454550524F4D26
:10026000210A005072696E7465722073746F707029
:1002700065642064756520746F206572726F727397
:100280002E2046697820746865206572726F72202E
:10029000616E6420757365204D39393920746F2083
:1002A000726573746172742E202854656D70657266
:1002B00061747572652069732072657365742E2090
:1002C0005365742069742061667465722072657369
:1002D00074617274696E67290A004E6F2043686505
:1002E000636B73756D2077697468206C696E652027
:1002F0006E756D6265722C204C617374204C696E52
:10030000653A2000636865636B73756D206D697372
:100310006D617463682C204C617374204C696E6548
:100320003A20004C696E65204E756D6265722069D9
:1003300073206E6F74204C617374204C696E65205D
:100340004E756D6265722B312C204C617374204C9C
:10035000696E653A20004D3131300053442072659A
:100360006164206572726F720A002121204B494C32
:100370004C2063617573656420627920746F6F200F
:100380006D75636820696E61637469766520746950
:100390006D65202D2063757272656E7420636F6DBC
:1003A0006D616E643A2000627573793A20706175F0
:1003B00073656420666F7220696E7075740A0062DE
:1003C0007573793A2070617573656420666F722069
:1003D000757365720A00627573793A2070726F6383
:1003E000657373696E670A004D3630300065636867
:1003F0006F3A004572726F723A000A4D656173750B
:1004000072656420706F696E74733A0A00357835CE
:10041000206D6573682E205A206F66667365743A86
:100420002000486F74656E6420746F6F20636F6C7A
:10043000640A0057616974696E6720666F7220688C
:1004400065617475702E0A003F5370656369666953
:10045000656420582C5920636F6F7264696E6174F3
:1004600065206F7574206F6620626F756E64732EE1
:100470000A003F28522965706561742076616C75A9
:1004800065206E6F7420706C61757369626C653B7A
:10049000206D757374206265206174206C656173D2
:1004A0007420312E0A003F2852296570656174203E
:1004B0006D75737420626520737065636966696524
:1004C00064207768656E206E6F74207573696E673F
:1004D00020616E204C43442E0A003F5370656369CF
:1004E00066696564206E6F7A7A6C652074656D70DC
:1004F00065726174757265206E6F7420706C6175C1
:100500007369626C652E0A003F53706563696669A2
:1005100065642066696C616D656E742073697A65C7
:10052000206E6F7420706C61757369626C652E0A41
:10053000003F537065636966696564207072696D18
:1005400065206C656E677468206E6F7420706C61D6
:10055000757369626C652E0A003F5072696D652083
:100560006C656E677468206D7573742062652073A6
:100570007065636966696564207768656E206E6F73
:1005800074207573696E6720616E204C43442E0A97
:10059000003F537065636966696564206E6F7A7A9F
:1005A0006C652073697A65206E6F7420706C61755C
:1005B0007369626C652E0A003F52657472616374E0
:1005C000696F6E204D756C7469706C696572206D11
:1005D000757374206265207370656369666965640C
:1005E0002E0A003F53706563696669656420526531
:1005F0007472616374696F6E204D756C7469706C90
:10060000696572206E6F7420706C61757369626CBD
:10061000652E0A003F537065636966696564206CE6
:100620006179657220686569676874206E6F7420EF
:10063000706C61757369626C652E0A0043292E0A1D
:10064000003F537065636966696564206265642074
:1006500074656D7065726174757265206E6F74205B
:10066000706C61757369626C65202834302D0047A9
:100670003236207374617274696E672E2E2E0A00F2
:10068000206E6F7420656E74657265642E0A00209A
:100690006F6620004D424C2047323920706F696EE2
:1006A0007420004A206F7574206F662072616E6737
:1006B000652028302D0049206F7574206F662072E8
:1006C000616E67652028302D004D6573682070725B
:1006D0006F62696E6720646F6E652E0A00537461E5
:1006E0007274206D6573682070726F62696E672026
:1006F0007769746820224732392053312220666995
:100700007273742E0A004732380A47323920533246
:1007100000686173206E6F20646174612E0A004D61
:1007200065736820426564204C6576656C696E6708
:10073000200053206F7574206F662072616E6765AC
:100740002028302D35292E0A0020496E76616C69EB
:1007500064206578747275646572200047322F4793
:10076000332062616420706172616D6574657273BB
:100770000A004D65736820706F696E74206F757420
:10078000206F662072616E67650A00456E642066A0
:10079000696C65206C6973740A00426567696E2034
:1007A00066696C65206C6973740A004E6F206D6514
:1007B0006469610A00286E6F2066696C65290043D0
:1007C000757272656E742066696C653A20005344D8
:1007D000207072696E74696E67206279746520009A
:1007E0004E6F74205344207072696E74696E670A8C
:1007F0000044656C6574696F6E206661696C656440
:100800002C2046696C653A200046696C6520646559
:100810006C657465643A005072696E742074696D19
:10082000653A20000A53746174733A2046696C611A
:100830006D656E7420757365643A20002C204C6FD2
:100840006E67657374206A6F623A2000546F74613A
:100850006C2074696D653A200053746174733A209A
:10086000002C204661696C65643A20002C204669A2
:100870006E69736865643A20005072696E74733AE9
:1008800020006F66660044454255473A004D3131BD
:10089000332053004348414D4245525F54454D502B
:1008A00045524154555245004241425953544550D6
:1008B00050494E470041524353004D4F54494F4E0B
:1008C0005F4D4F44455300544845524D414C5F5095
:1008D000524F54454354494F4E004C4F4E475F468C
:1008E000494C454E414D45004155544F5245504F9E
:1008F00052545F53445F535441545553005344433F
:100900004152440050524F4D50545F535550504F38
:10091000525400454D455247454E43595F50415250
:1009200053455200434153455F4C494748545F4249
:1009300052494748544E45535300544F47474C453E
:100940005F4C494748545300534F46545741524512
:100950005F504F574552004255494C445F504552F5
:1009600043454E54004C4556454C494E475F444123
:100970005441005A5F50524F42450052554E4F5518
:1009800054004155544F4C4556454C005052494E29
:10099000545F4A4F420050524F4752455353004113
:1009A00055544F5245504F52545F54454D50005688
:1009B0004F4C554D455452494300454550524F4DBB
:1009C0000042494E4152595F46494C455F5452419D
:1009D0004E534645520053455249414C5F584F4E85
:1009E0005F584F4646004649524D574152455F4E6B
:1009F000414D453A4D61726C696E20322E302E3772
:100A00002E3320284D6172202037203230323120A1
:100A100031343A33303A34342920534F5552434518
:100A20005F434F44455F55524C3A68747470733A53
:100A30002F2F6769746875622E636F6D2F66726FF2
:100A40006C62656C2F4D61726C696E2050524F5410
:100A50004F434F4C5F56455253494F4E3A312E301B
:100A6000204D414348494E455F545950453A4A4705
:100A70004175726F7261204135204558545255447A
:100A800045525F434F554E543A3120555549443AEB
:100A900063656465326132662D343161322D3437DD
:100AA00034382D396231322D633535633632663351
:100AB000363766660A002F2F2000416363656C6538
:100AC000726174696F6E3A2050003F4A206F7574EE
:100AD000206F662072616E67652028302E303120CD
:100AE000746F20302E33290A0020204D61783A207F
:100AF0000020204D696E3A2000536F667420656EA9
:100B00006473746F70733A200046523A0020466C4A
:100B10006F773A20004D424C2041646A757374200F
:100B20005A0020643A0020693A0020703A00646953
:100B3000730043290A0061626C656420286D696E48
:100B40002074656D702000436F6C6420657874724A
:100B50007564657320617265200046696C616D651E
:100B60006E742072756E6F757420004F46460A00D1
:100B7000466164652048656967687420004661695C
:100B80006C656420746F20656E61626C65204265DF
:100B900064204C6576656C696E670A004D65736804
:100BA00020426564204C6576656C20646174613A0E
:100BB0000A00496E76616C6964206D6573682E0A5F
:100BC000004D34323120696E636F72726563742038
:100BD000706172616D657465722075736167650A15
:100BE00000546F6F206661722066726F6D207265AF
:100BF000666572656E636520706F696E740A004584
:100C00004550524F4D204F4B0A00473238004D3867
:100C10003400446F6E65207072696E74696E67206F
:100C200066696C650A004D3737004D33310043610A
:100C3000703A00656E7175657565696E6720220092
:100C40006F6B00526573656E643A200025697920E8
:100C5000256964202569682025696D202569730050
:100C600023646566696E652044454641554C545F72
:100C7000004B6420004B6920004B70200050494419
:100C8000204175746F74756E652066696E6973684E
:100C90006564212050757420746865206C617374DC
:100CA000204B702C204B6920616E64204B642063C4
:100CB0006F6E7374616E74732066726F6D206265FF
:100CC0006C6F7720696E746F20436F6E666967750D
:100CD000726174696F6E2E680A0050494420417534
:100CE000746F74756E65206661696C65642120742B
:100CF000696D656F75740A00504944204175746FC1
:100D000074756E65206661696C6564212054656D3B
:100D1000706572617475726520746F6F20686967A1
:100D2000680A00204B643A2000204B693A200020DA
:100D30004B703A20000A20436C6173736963205042
:100D40004944200A002054753A2000204B753A206F
:100D500000206D61783A2000206D696E3A200020F5
:100D6000643A200020626961733A200050494420AF
:100D70004175746F74756E652073746172740A00C6
:100D8000504944204175746F74756E6520666169C1
:100D90006C656421204261642065787472756465B5
:100DA00072206E756D6265720A006F70656E005418
:100DB00052494747455245440066696C616D656E0E
:100DC00074007A5F6D696E00795F6D696E00785F9F
:100DD0006D696E005265706F7274696E6720656E22
:100DE0006473746F70207374617475730A00576153
:100DF000726E696E673A20486F6D696E6720427542
:100E00006D702044697669736F72203C20310A004E
:100E100044023F023802310223020000A0C0000059
:100E20000000000000000000A0420000A0420000FE
:100E300040410A0A060000A0400000A04000000057
:100E40004000009B43008098430000A043FFFFFF49
:100E500000809843008098430000A043205200493E
:100E60006E76616C69642065787472756465720A67
:100E700000496E736572742066696C616D656E748D
:100E800020616E642073656E64204D3130380A0035
:100E900020746F6F206C6F6E672065787472757345
:100EA000696F6E2070726576656E7465640A0020E5
:100EB000636F6C6420657874727573696F6E2070EF
:100EC000726576656E7465640A0020627974657374
:100ED0003B20637263200053657474696E677320EE
:100EE00053746F726564202800454550524F4D2061
:100EF0006461746173697A65206572726F722E0A1B
:100F0000002073746F7265642073657474696E6712
:100F100073207265747269657665642028002028E4
:100F200063616C63756C6174656429210A0020211A
:100F30003D2000454550524F4D20435243206D699E
:100F4000736D61746368202D202873746F726564FB
:100F50002920002053697A653A2000496E6465783B
:100F60003A200044494749504F5453204C6F616424
:100F700065640A0044494749504F5453204C6F61FF
:100F800064696E670A00204D61726C696E3D563867
:100F900032290A00454550524F4D207665727369DB
:100FA0006F6E206D69736D617463682028454550CC
:100FB000524F4D3D0048617264636F646564204424
:100FC000656661756C742053657474696E6773200F
:100FD0004C6F616465640A003B200020204D363070
:100FE00033200020204D34313220530046696C619B
:100FF0006D656E742072756E6F75742073656E7397
:101000006F723A0020550046696C616D656E742000
:101010006C6F61642F756E6C6F6164206C656E67B8
:101020007468733A0020440020204D333031205042
:10103000005049442073657474696E67733A0020E8
:1010400020473239205334205A00204A00202047BC
:10105000323920533320490020204D343230205380
:10106000004D65736820426564204C6576656C6947
:101070006E673A0020204D323036205800486F6DA0
:1010800065206F66667365743A0020204D323035F6
:10109000204200416476616E6365643A20423C6D93
:1010A000696E5F7365676D656E745F74696D655FAA
:1010B00075733E20533C6D696E5F66656564726151
:1010C00074653E20543C6D696E5F74726176656C28
:1010D0005F66656564726174653E204A3C6A756E40
:1010E000635F6465763E0020540020204D3230342A
:1010F000205000416363656C65726174696F6E2096
:1011000028756E6974732F7332293A20503C7072BF
:10111000696E745F616363656C3E20523C726574F6
:10112000726163745F616363656C3E20543C7472EA
:101130006176656C5F616363656C3E0020204D32B3
:1011400030312058004D6178696D756D20416363C1
:10115000656C65726174696F6E2028756E69747351
:101160002F7332293A0020204D3230332058004D61
:101170006178696D756D206665656472617465730B
:101180002028756E6974732F73293A005374657043
:10119000732070657220756E69743A0020204D329C
:1011A00030302053002044697361626C65640A002A
:1011B00046696C616D656E742073657474696E67E1
:1011C000733A0020286D6D290020204732312020FD
:1011D00020203B20556E69747320696E206D6D0070
:1011E00020436F756E7420583A00626564002C20AD
:1011F00073797374656D2073746F707065642120EA
:101200004865617465725F49443A200048656174BD
:10121000696E67204661696C656400486561746940
:101220006E67206661696C656400544845524D41A3
:101230004C2052554E4157415900546865726D61BA
:101240006C2052756E61776179004572723A204D5B
:10125000415854454D50004D415854454D5020740F
:101260007269676765726564004572723A204D491C
:101270004E54454D50004D494E54454D50207472CA
:101280006967676572656400202F002042403A005C
:1012900020403A0020573A007C3C3E5E2B3D3F2FD9
:1012A0005B5D3B2C2A225C0043616E6E6F74206F85
:1012B00070656E2073756264697220005344206308
:1012C000617264206F6B0A006F70656E526F6F748D
:1012D000206661696C65640A00766F6C756D652EB9
:1012E000696E6974206661696C65640A004E6F20DE
:1012F000534420636172640A006F70656E206661FA
:10130000696C65642C2046696C653A200046696CFE
:10131000652073656C65637465640A0046696C6575
:10132000206F70656E65643A2000454E4420535529
:1013300042524F5554494E450A002220706F7300A7
:101340002220706172656E743A2200535542524FEA
:101350005554494E452043414C4C20746172676599
:10136000743A22004578636565646564206D617830
:1013700020535542524F5554494E45206465707470
:10138000683A310A0057726974696E6720746F2079
:1013900066696C653A2000667265736800646F69FF
:1013A0006E67004E6F7720002020506C616E6E6576
:1013B0007242756666657242797465733A200020E0
:1013C00046726565204D656D6F72793A2000436FF6
:1013D0006D70696C65643A204D617220203720324F
:1013E0003032310A00204C6173742055706461748E
:1013F00065643A20323032312D30322D3033207C4A
:1014000020417574686F723A2028416C6578616E6E
:101410006465722042656C6B696E2C2033204665D2
:10142000622032303231290A00322E302E372E33EC
:101430000A004D61726C696E0020536F66747761AB
:1014400072652052657365740A0020576174636881
:10145000646F672052657365740A002042726F776B
:101460006E206F75742052657365740A002045788C
:101470007465726E616C2052657365740A00506FFA
:1014800077657255700A004D3234004D3233202595
:1014900073006175746F25632E6700473237004D06
:1014A00031303031006572726F7220777269746901
:1014B0006E6720746F2066696C650A00446F6E6504
:1014C00020736176696E672066696C652E0A004D2F
:1014D000323900656E6473746F7073206869743A92
:1014E0002000486F6D65202573257325732046699C
:1014F0007273740053656E64204D31303820746F00
:1015000020726573756D650A0053656E64204D31F8
:10151000303820746F2068656174206E6F7A7A6C41
:10152000650A00220A00556E6B6E6F776E20636F3E
:101530006D6D616E643A2022002045002059002024
:101540004D393220580020453A00205A3A0020599F
:101550003A005072696E7465722068616C746564DB
:101560002E206B696C6C28292063616C6C6564218A
:101570000A0000009643000096430000204100004E
:10158000C8410000A0420000A04200004844000002
:10159000CA42580200005802000064000000900196
:1015A000000024F4D43050C38E20C2A24017828B96
:1015B0007011127A910D816CD90AA861E108C7589F
:1015C0006607615143061E4B5D05C145A7041A41DC
:1015D0001104093D9803713931034036DB0265334C
:1015E0009102D4305402802E1D02632CEE01752A24
:1015F000C501B028A001102781018F2564012B248B
:101600004B01E0223401AC211F018D200D01801F10
:10161000FC00841EED00971DDF00B81CD200E61B05
:10162000C600201BBC00641AB200B219A8000A1937
:10163000A0006A189900D117910040178B00B516C9
:10164000840031167E00B31579003A157300C71473
:101650006F0058146A00EE136600881363002513A8
:101660005E00C7125B006C12570015125400C111C6
:10167000510070114F0021114B00D61049008D1000
:1016800047004610440002104200C00F4000800F87
:101690003E00420F3C00060F3B00CB0E3800930E7D
:1016A00037005C0E3500270E3400F30D3200C10DFB
:1016B0003100900D3000600D2E00320D2D00050D13
:1016C0002C00D90C2B00AE0C2900850C29005C0CD9
:1016D0002700350C27000E0C2600E80B2400C40B55
:1016E0002400A00B23007D0B23005A0B2100390B93
:1016F0002100180B2000F80A1F00D90A1E00BB0A9F
:101700001E009D0A1D00800A1D00630A1C00470A76
:101710001B002C0A1B00110A1A00F7091A00DD0928
:101720001900C4091900AB091900920917007B09B7
:101730001800630917004C09160036091600200925
:1017400016000A091500F5081500E0081400CC0879
:101750001400B8081400A4081400900813007D08B1
:1017600012006B08130058081200460812003408D3
:101770001100230811001208110001081100F007E0
:101780001000E0071000D0071000C0071000B007DD
:101790000F00A107100091070E0083070F007407C8
:1017A0000F0065070E0057070E0049070E003B07A4
:1017B0000D002E070E0020070D0013070D00060771
:1017C0000D00F9060C00ED060D00E0060C00D40635
:1017D0000C00C8060C00BC060C00B0060C00A406E9
:1017E0000B0099060C008D060B0082060B00770695
:1017F0000B006C060B0061060A0057060B004C0636
:101800000A0042060A0038060A002E060A002406CC
:101810000A001A060A001006090007060A00FD055C
:101820000900F4050900EB050900E2050900D905E6
:101830000900D0050900C7050900BE050900B50566
:101840000800AD050800A50509009C0508009405E1
:1018500008008C050800840508007C050800740554
:1018600008006C050700650508005D0507005605C2
:1018700008004E0507004705070040050800380529
:101880000700310507002A050700230507001C058E
:101890000600160507000F050700080506000205EB
:1018A0000700FB040600F5040700EE040600E80448
:1018B0000600E2040700DB040600D5040600CF049E
:1018C0000600C9040600C3040600BD040600B704F0
:1018D0000600B1040500AC040600A6040600A0043E
:1018E00005009B04060095040500900406008A0488
:1018F000050085040500800406007A0405007504CF
:101900000500700405006B04050066040500610411
:1019100005005C04050057040500520405004D0451
:10192000050048040500430405003E0404003A0491
:10193000050035040500300404002C0405002704CC
:101940000400230405001E0404001A040400160405
:101950000500110404000D0404000904050004043A
:10196000040000040400FC030400F8030400F40372
:101970000400F0030400EC030400E8030400E403A3
:101980000400E0030400DC030400D8030400D403D3
:101990000400D0030400CC030400C8030300C50303
:1019A000030024F404D9201BC40C5C0E9804C40961
:1019B0005F0265077101F405F900FB04B3004804F8
:1019C0008700C10369005803550003034500BE02A8
:1019D0003A008402310053022A0029022500040241
:1019E0002000E4011C00C8011900AF011700980194
:1019F00014008401130071011000610110005101F5
:101A00000E0043010D0036010B002B010B002001DD
:101A10000B00150109000C01090003010800FB007F
:101A20000800F3000800EB000700E4000600DE00F9
:101A30000600D8000600D2000600CC000500C70052
:101A40000500C2000500BD000400B9000400B50097
:101A50000400B1000400AD000400A9000400A500CA
:101A60000300A20003009F0004009B0003009800F5
:101A700003009500020093000300900003008D0016
:101A800002008B0003008800020086000200840030
:101A90000300810002007F0002007D0002007B0045
:101AA0000200790002007700010076000200740055
:101AB000020072000100710002006F0002006D0060
:101AC00001006C0002006A0001006900020067006A
:101AD0000100660001006500010064000200620070
:101AE000010061000100600001005F0002005D0074
:101AF00001005C0001005B0001005A000100590078
:101B00000100580001005700010056000100550077
:101B10000100540001005300000053000100520076
:101B2000010051000100500001004F0001004E0073
:101B300000004E0001004D0001004C0001004B0070
:101B400000004B0001004A0001004900010048006C
:101B50000000480001004700010046000000460068
:101B60000100450000004500010044000100430061
:101B7000000043000100420000004200010041005B
:101B8000000041000100400001003F0000003F0054
:101B900001003E0000003E0001003D0000003D004D
:101BA00001003C0000003C0000003C0001003B0044
:101BB00000003B0001003A0000003A00010039003B
:101BC0000000390001003800000038000000380033
:101BD0000100370000003700010036000000360029
:101BE000000036000100350000003500000035001F
:101BF0000100340000003400000034000100330014
:101C00000000330000003300010032000000320009
:101C100000003200010031000000310000003100FE
:101C200001003000000030000000300001002F00F3
:101C300000002F0000002F0000002F0001002E00E8
:101C400000002E0000002E0001002D0000002D00DD
:101C500000002D0000002D0001002C0000002C00D1
:101C600000002C0000002C0001002B0000002B00C5
:101C700000002B0000002B0001002A0000002A00B9
:101C800000002A0000002A000100290000002900AD
:101C900000002900000029000000290001002800A0
:101CA0000000280000002800000028000000280094
:101CB0000100270000002700000027000000270087
:101CC000000027000100260000002600000026007A
:101CD000000026000000260001002500000025006D
:101CE0000000250000002500000025000000250060
:101CF0000100240000002400000024000000240053
:101D00000000240001002300000023000000230045
:101D10000000230000002300000023000000230037
:101D2000010022000000220000002200000022002A
:101D3000000022000000220001002100000021001C
:101D4000000021000000210000002100000021000F
:101D50000000210001002000000020000000200001
:101D600000002000000020000000200000002000F3
:101D70000000200001001F0000001F0000001F00E5
:101D800000001F0000001F0000001F0000001F00D7
:101D900001001E0000001E0000001E0000001E00CA
:101DA0000000043700001E290000511B00005810DD
:101DB000000010090000CC0400007802000041017E
:101DC000000070012C0190012701B0012201C00127
:101DD0001D01F00118011002130130020E01600212
:101DE000090190020401C002FF000003FA00400351
:101DF000F5008003F000D003EB002004E60070043F
:101E0000E100E004DC004005D700C005D200400638
:101E1000CD00D006C8008007C3003008BE00F0081F
:101E2000B900C009B400B00AAF00B00BAA00D00CD2
:101E3000A500000EA000500F9B00C010960050128D
:101E4000910000148C00C0158700B0178200B019F3
:101E50007D00D01B7800001E730040206E00902291
:101E60006900F024640040275F0090295A00E02BAD
:101E70005500102E500020304B0010324600E03349
:101E8000410090353C001037370070383200A039DF
:101E90002D00B03A2800A03B2300603C1E00103DFE
:101EA0001900903D1400103E0F00703E0A00C03E25
:101EB0000500003F0000403FFBFF803FF6FFC03FB2
:101EC000F1FFF001130110020E0130020401600263
:101ED000FD009002F8000003EF008003E8002004FA
:101EE000DE00E004D400D005CE00A006C7006007E5
:101EF000BF002008BA00E009B000B00BA700000E38
:101F00009E00E010940010148900B0177F00E01BC1
:101F1000750060206A0010256000C0295600302E30
:101F20004C00F02F4800E0333E0060383000E039CC
:101F30002D00B03B2300603C1E00103D1900903D79
:101F40001400103E0F00703E0A00C03E0500003F26
:101F50000000403FFBFF803FF6FFC03FF1FF000065
:101F60000A0B02090C0D0E08070304010000000013
:101F70000000000000000000000000000000000061
:101F8000000000000000000000001211100000001E
:101F90000000000000000000000000000000000041
:101FA00000000000DB0FC93F45BCDA3F8FB30240A1
:101FB000FCF0274056946140FE4B9B4084A5D840DE
:101FC000E0231841346A5641E859974164DBD54112
:101FD0006E271742B4B75542CE1A9742C8AED542C3
:101FE000B5885A43D40684BFA65FA7BF7443E0BF39
:101FF00010B11AC01C2C58C0E8F697C0B849D6C01A
:102000004E4E17C124D355C1802497C1A0B5D5C168
:10201000121A17C244AE55C2781797C26CACD5C21B
:1020200067885AC300002200250028002B002E00DC
:102030003100340002010000050108010B0100001D
:102040002100240027002A002D0030003300010168
:102050000000040107010A01050505050705080838
:102060000808020202020A0A080804040404010122
:102070000101010101010303030303030303040737
:1020800007070C0C0C0C0C0C0C0C020202020606CE
:102090000606060606060B0B0B0B0B0B0B0B0102C1
:1020A000102020080810204010204080020102016A
:1020B0000804020101020408102040808040201022
:1020C000080402018004020180402010080402017B
:1020D00008040201010204081020408001020408E3
:1020E000102040806EAB24B311241FBECFEFD1E28D
:1020F000DEBFCDBF00E00CBF12E0A0E0B2E0EEEA30
:10210000F0E801E00BBF02C007900D92A83DB107B7
:10211000D9F721E1A8EDB2E001C01D92A13DB207BF
:10212000E1F710E1C3E7D0E100E006C02197010923
:10213000802FFE010E9496BCC237D10780E00807BD
:10214000A9F70E944FAC0C9445C00C940000AF92CC
:10215000BF92CF92DF92EF92FF920F931F93CF9394
:10216000DF93C2E0DCE005E517E082E1A82E8CE019
:10217000B82EC12CD12C7601C394699179918991A3
:1021800099910E9423B8288939894A895B890E94DC
:1021900084B80E9430BEF80161937193819391934A
:1021A0008F01C616D706E806F90610F46B017C010C
:1021B000AC16BD0611F76FEF7FEFCB01A7019601BB
:1021C0000E9411BC20936507309366074093670710
:1021D00050936807DF91CF911F910F91FF90EF907F
:1021E000DF90CF90BF90AF900895CF92DF92EF92A3
:1021F000FF928091E604882309F457C0C090E2045E
:10220000D090E304E090E404F090E50420E030E0B6
:10221000A901C701B6010E941EB8882309F445C070
:1022200020E030E040E05FE3C701B6010E9484B8DF
:102230009B01AC010E9484B82BED3FE049E450E4DF
:102240000E9484B89B01AC0160E070E080E89FE3ED
:102250000E94B7BD6B017C01C0925804D092590412
:10226000E0925A04F0925B0460911602709117029A
:10227000072E000C880B990B0E9425B82AE037ED39
:1022800043E25CE30E9484B8A70196010E9484B8EF
:1022900060935102709352028093530290935402C0
:1022A000FF90EF90DF90CF900895C12CD12C80E863
:1022B000E82E8FE3F82ED0CF2F923F924F925F926D
:1022C0006F927F928F929F92AF92BF92CF92DF9246
:1022D000EF92FF920F931F93CF93DF93CDB7DEB7AB
:1022E00064970FB6F894DEBF0FBECDBF7A8B698BB3
:1022F000DC018D909D90AD90BC90139714962D911C
:102300003D914D915C9117972D833E834F83588764
:1023100020E030E040E251E4C501B4010E94BCBCC1
:102320002DE633EF45E65CE30E9484B80E9429BEA7
:1023300064300CF427C163E0E62E660FFF08F70156
:10234000EE0FFF1FEE0FFF1FEC51F34F4080518047
:10235000628073801701BFEF2B1A3B0A20E030E048
:1023600040E251E46D817E818F8198850E94BCBCE2
:102370002DE633EF45E65CE30E9484B80E9429BE57
:1023800064300CF403C163E0062F660F110BF801F3
:10239000EE0FFF1FEE0FFF1FEC51F34F2081318135
:1023A0004281538129833A834B835C83A8014F5F29
:1023B0005F4F5C8B4B8BA5E0AE9DC001AF9D900D38
:1023C00011249A878987FC01E00FF11FEE0FFF1F90
:1023D000EE0FFF1FE258FB4FC080D180E280F380F8
:1023E000F101EE0FFF1FEE0FFF1FEC51F34FA301A2
:1023F000920160817181828193810E94BCBC6B8754
:102400007C878D879E87A3019201C501B4010E943C
:10241000BCBC2B013C0125E0229DF001239DF00D69
:102420001124F88BEF87E00FF11FEE0FFF1FEE0F67
:10243000FF1FE258FB4FA7019601608171818281E5
:1024400093810E94BCBC2B853C854D855E850E9496
:10245000B7BDA30192010E9484B8A70196010E9412
:10246000BDBC6B017C01E985FA854B895C89E40F71
:10247000F51FEE0FFF1FEE0FFF1FE258FB4F80808E
:102480009180A280B380EF85F889E40FF51FEE0FED
:10249000FF1FEE0FFF1FE258FB4FA5019401608163
:1024A0007181828193810E94BCBC2B853C854D85C6
:1024B0005E850E94B7BDA30192010E9484B8A50168
:1024C00094010E94BDBCA70196010E94BCBC4B01B7
:1024D0005C01EB89FC89EE0FFF1FEE0FFF1FEC5133
:1024E000F34F29813A814B815C81608171818281C6
:1024F00093810E94BCBC9B01AC01C501B4010E9448
:10250000B7BD4B015C0129813A814B815C816D81B2
:102510007E818F8198850E94BCBC9B01AC01C50166
:10252000B4010E9484B8A70196010E94BDBCA9898C
:10253000BA892D913D914D915C910E9484B8209172
:102540007A0430917B0440917C0450917D040E9478
:10255000BDBC64960FB6F894DEBF0FBECDBFDF9151
:10256000CF911F910F91FF90EF90DF90CF90BF9090
:10257000AF909F908F907F906F905F904F903F9023
:102580002F90089567FFD8CE60E0D6CE67FFFCCECF
:1025900060E0FACE8F929F92AF92BF92CF92DF927D
:1025A000EF92FF92CF93DF93EC018090520C9090CA
:1025B000530CA090540CB090550C20E030E0A901D1
:1025C000C501B4010E941EB8882309F454C0C88014
:1025D000D980EA80FB80A7019601C501B4010E9461
:1025E0001EB818160CF04CC020914A0C30914B0CC0
:1025F00040914C0C50914D0CC701B6010E941EB881
:10260000882331F1C0924A0CD0924B0CE0924C0CD2
:10261000F0924D0C20914E0C30914F0C4091500C8B
:102620005091510C688179818A819B810E9484B884
:102630009B01AC0160E070E080E89FE30E94BCBCBD
:102640006093120270931302809314029093150208
:102650006091120270911302809114029091150200
:10266000DF91CF91FF90EF90DF90CF90BF90AF9030
:102670009F908F90089560E070E080E89FE3F0CF36
:1026800060E070E0CB01ECCFCF93DF9324E0829F3A
:10269000C0011124EC01CA5AD34FFC01E356FA4F92
:1026A000855B9B4FDC012D913D914D915C9160814B
:1026B0007181828193810E94BDBC688379838A8302
:1026C0009B83DF91CF910895CF92DF92EF92FF929B
:1026D0001F93CF93DF9320912402222309F48DC00E
:1026E000EC011091570410FF2CC0C0902602D0902E
:1026F0002702E0902802F0902902288139814A813E
:102700005B81C701B6010E941DBF181624F4C88260
:10271000D982EA82FB82C0903202D0903302E090EC
:102720003402F0903502288139814A815B81C701EA
:10273000B6010E941EB887FF04C0C882D982EA820F
:10274000FB8211FF2CC0C0902A02D0902B02E09097
:102750002C02F0902D022C813D814E815F81C701BA
:10276000B6010E941DBF181624F4CC82DD82EE82D1
:10277000FF82C0903602D0903702E0903802F0908D
:1027800039022C813D814E815F81C701B6010E94D3
:102790001EB887FF04C0CC82DD82EE82FF8212FF6A
:1027A0002CC0C0902E02D0902F02E0903002F0900A
:1027B0003102288539854A855B85C701B6010E94AB
:1027C0001DBF181624F4C886D986EA86FB86C090F9
:1027D0003A02D0903B02E0903C02F0903D02288506
:1027E00039854A855B85C701B6010E941EB887FFFF
:1027F00004C0C886D986EA86FB86DF91CF911F91F7
:10280000FF90EF90DF90CF900895CF93DF93DB019F
:10281000F9019C919130C1F0943080F094509C93D8
:102820008830D1F480819181009771F00197918374
:102830008083480F591FEA01188206C08C3539F48D
:102840009C5F9C93943041F4DF91CF9108958B333A
:1028500039F781E08C93F8CF20813181B9016F5F26
:102860007F4F71836083420F531FEA018883808109
:1028700091818F3591056CF7E7CF9091A905E92FEC
:10288000F0E0E553F34F80839F5F943040F49093E2
:10289000A90580912D078F5F80932D0708951092D1
:1028A000A905F7CF282F9091A403833021F495FD3B
:1028B0000FC094FD0FC0892F90E0B0E0A0E004C0ED
:1028C000B695A795979587952A95D2F78170089523
:1028D00081E0089580E00895CF92DF92EF92FF9219
:1028E000CF93DF93EC016A017B0127E137EB41EDE8
:1028F00058EBCB01B6010E941DBF87FD23C023E02A
:1029000030E848E953E4C701B6010E941EB8181622
:10291000CCF0C880D980EA80FB8022ED30E040EA2C
:1029200050ECC701B6010E941DBF87FD0BC0C1E07E
:1029300023E030E848E953E4C701B6010E941EB81D
:1029400018160CF4C0E08C2FDF91CF91FF90EF9020
:10295000DF90CF9008952FEB280F2A3108F047C061
:10296000E22FF0E08091BF039091C003A091C103DA
:10297000B091C20304C0B695A795979587952A95FF
:10298000D2F780FD02C081700895EB55FC4FE081C5
:10299000EE2341F18091000C9091010CE80FF92F8A
:1029A000F11D808190ED980F9A3030F08E3251F405
:1029B000818180538A3098F4F0939203E0939103DD
:1029C00081E008958D3211F08B3249F4818190EDD0
:1029D000980F9A3088F38E3211F48281EACFF0E0BA
:1029E000E0E0EACF1092920310929103E9CF80E0E9
:1029F00008950F931F9380916804813019F50E9408
:102A0000517900915C0410915D0420915E04309135
:102A10005F04601B710B820B930B28EE33E040E0E8
:102A200050E00E9411BC609160047091610480913B
:102A3000620490916304620F731F841F951F1F919E
:102A40000F9108956091640470916504809166040B
:102A500090916704D6CF80916804813079F482E048
:102A6000809368040E9451796093640470936504B4
:102A7000809366049093670481E0089580E0089550
:102A800020914E0230914F022F5031098217930747
:102A90000CF49C013093720C2093710C0C94287AE6
:102AA0000F931F93CF93DF9306E11CE0CBE6D7E0B3
:102AB000F80121913191419151918F0160E070E0D5
:102AC00080E89FE30E94B7BD6993799389939993B6
:102AD000F7E0CB37DF0761F70E94F765DF91CF9111
:102AE0001F910F910C94A710CF92DF92EF92FF925B
:102AF0000F931F93C12CD12C76018C0123E632E079
:102B00004FE552E06BE572E087E592E00E94D676F1
:102B10001F910F91FF90EF90DF90CF9008958091DB
:102B20002E07882319F010922E07089580E00E9446
:102B3000028B2F923F924F925F926F927F928F9271
:102B40009F92AF92BF92CF92DF92EF92FF920F933C
:102B50001F93CF93DF93D62FC72FFC0180809180E6
:102B6000A280B380C501B40120E831E541E050E026
:102B70000E9411BCC9016DE671E00E9482BC6B012C
:102B80007C01C501B40120E13EE040E050E00E943C
:102B900011BCCA01B90128E130E040E050E00E94D8
:102BA00011BC362E272E062F172F8CE3482E512CC2
:102BB000612C712CC501B401A30192010E9411BCCA
:102BC000B62EA72ECA01B901A30192010E9411BC21
:102BD000CB01C114D10479F1AF92BF927F936F936F
:102BE0002F923F92FF92EF92DF92CF928CE49CE083
:102BF0009F938F93CF93DF930E94EEB78DB79EB7CD
:102C00000E960FB6F8949EBF0FBE8DBF8D2F9C2FD2
:102C1000DF91CF911F910F91FF90EF90DF90CF90B8
:102C2000BF90AF909F908F907F906F905F904F90EC
:102C30003F902F900895E114F104C9F0AF92BF9234
:102C40007F936F932F923F92FF92EF9280E59CE0EB
:102C50009F938F93CF93DF930E94EEB7EDB7FEB7AC
:102C60003C960FB6F894FEBF0FBEEDBFCFCF012B41
:102C7000B9F0AF92BF927F936F932F923F9284E50A
:102C80009CE09F938F93CF93DF930E94EEB78DB715
:102C90009EB70A960FB6F8949EBF0FBE8DBFB6CFF3
:102CA000892BA9F0AF92BF927F936F9388E59CE048
:102CB0009F938F93CF93DF930E94EEB7EDB7FEB74C
:102CC00038960FB6F894FEBF0FBEEDBF9FCFAF9200
:102CD000BF928CE59CE09F938F93CF93DF930E94EC
:102CE000EEB70F900F900F900F900F900F908ECF28
:102CF0008091910390919203009731F04AE050E067
:102D000070E060E00C9484B660E070E0CB01089560
:102D10008091910390919203009731F04AE050E046
:102D200070E060E00C9456B560E070E0CB0108956F
:102D30000E948816CB0108950F931F93CF93809123
:102D40009103909192030097E9F0FC018F01C191EA
:102D50002C2F2F7D81F0C53411F0C536B9F7F8015D
:102D6000108270E060E00E94F8B3F801C083CF9158
:102D70001F910F91089570E060E0CF911F910F9126
:102D80000C94F8B360E070E0CB01F1CFCF92DF920A
:102D9000EF92FF926B017C0183E3C816D104E1043A
:102DA000F10470F082E3C81AD108E108F10862E387
:102DB00070E080E090E00E941E790E94CD8EECCF02
:102DC000C701B6010E941E79FF90EF90DF90CF906F
:102DD0000C94CD8E0F931F93CF93DF9300D01F924F
:102DE000CDB7DEB78C0108960E94CA1269837A8338
:102DF0008B839C83BE016F5F7F4FC8010E945C1173
:102E00009B01AC01F80160857185828593850E94E4
:102E1000BCBCF80160877187828793870F900F9001
:102E20000F900F90DF91CF911F910F9108950F9305
:102E30001F93CF93DF9300D01F92CDB7DEB72091C1
:102E4000620C2223E1F08C0108960E94CA12698369
:102E50007A838B839C83BE016F5F7F4FC8010E9482
:102E60005C119B01AC01F8016085718582859385B9
:102E70000E94BDBCF80160877187828793870F909D
:102E80000F900F900F90DF91CF911F910F910895A8
:102E90004F925F926F927F928F929F92AF92BF926A
:102EA000CF92DF92EF92FF920F931F93CF93DF9316
:102EB000CDB7DEB76A970FB6F894DEBF0FBECDBFB1
:102EC0009A8F898F5B018A01DC01D6966D917D9185
:102ED0008D919C91D9970E9423B86B017C01F501DB
:102EE00020813181428153810E9484B80E949BBD20
:102EF0002B013C01D8012D913D914D915C91C70171
:102F0000B6010E9484B80E949BBD4B015C01C301C5
:102F1000B2010E9430BE698B7A8B8B8B9C8B683799
:102F200071058105910540F428E730E040E050E06C
:102F3000298B3A8B4B8B5C8BC501B4010E9430BE50
:102F40006D877E878F87988B68377105810591051E
:102F500040F488E790E0A0E0B0E08D879E87AF87DF
:102F6000B88BE98DFA8DEE5BFF4F20813181428174
:102F7000538129833A834B835C83CA01B9010E9440
:102F800025B82B013C0169897A898B899C890E942B
:102F900023B869877A878B879C8720E030E0A90176
:102FA000C301B2010E941EB8882309F43BC1A701E6
:102FB0009601C701B6010E9484B84B015C012985C6
:102FC0003A854B855C85CA01B9010E9484B89B0192
:102FD000AC01C501B4010E94BCBC4B015C01A30162
:102FE0009201C301B2010E94BDBC9B01AC01C501AD
:102FF000B4010E94B7BD0E949BBD0E9430BE6D838C
:103000007E838F83988769817A818B819C8190955B
:103010008095709561957F4F8F4F9F4F0E9425B887
:103020004B015C016D857E858F8598890E9423B850
:1030300069837A838B839C8320E030E0A901C501FA
:10304000B4010E941EB8882309F4F0C029813A8196
:103050004B815C81CA01B9010E9484B86D8B7E8B63
:103060008F8B988FA7019601C701B6010E9484B883
:103070009B01AC016D897E898F89988D0E94BCBCB3
:103080006B017C01A5019401C501B4010E94BDBC86
:103090009B01AC01C701B6010E94B7BD0E945FBE93
:1030A000A98DBA8D95968D909D90AD90BC90989776
:1030B000750164012D813E814F815885C21AD30A62
:1030C000E40AF50A0E9430BEC61AD70AE80AF90ACD
:1030D000F7FE6EC020E030E0A901C301B2010E94FA
:1030E0001EB8882309F4A6C0C501B4010E9423B804
:1030F0006B017C01A3019201C301B2010E94BDBC1E
:103100009B01AC01C701B6010E9484B86B017C0130
:1031100029853A854B855C85CA01B9010E9484B82E
:103120009B01AC01C701B6010E94BCBC6B017C01D4
:1031300029813A814B815C81CA01B9010E9484B81E
:103140009B01AC01C701B6010E94BDBC6B017C01B3
:1031500020E030E040E850E4C301B2010E9484B8AE
:103160009B01AC01C701B6010E94B7BD0E949BBD87
:103170006B017C0120E030E0A9010E941DBF181600
:103180001CF0C12CD12C7601C701B6010E9430BEC3
:103190006D837E838F83988786169706A806B90667
:1031A00020F48D829E82AF82B886C12CD12C76010C
:1031B0008D819E81AF81B885E98DFA8D81A792A717
:1031C000A3A7B4A7C80ED91EEA1EFB1EC5A6D6A685
:1031D000E7A6F0AA29893A894B895C8922AF33AFE7
:1031E00044AF55AFFE962D853E854F855889208387
:1031F0003183428353836A960FB6F894DEBF0FBEC5
:10320000CDBFDF91CF911F910F91FF90EF90DF9095
:10321000CF90BF90AF909F908F907F906F905F9076
:103220004F90089560E070E0CB01E5CE60E070E083
:10323000CB0134CF60E070E0CB0198CF8091B90C26
:103240009091BA0C891B8F7019F490E080E008957A
:103250009091B60C992351F0833030F48FEF890FA1
:1032600019F08093B60CF1CF1092B60C8091BA0C85
:1032700028E4829FC00111248458984FFC012081CA
:1032800020FDE3CF2091BA0C2F5F2F702093B70C55
:103290003091BA0C2091B80C321304C02091B70CB5
:1032A0002093B80C089590916F0081E091FD02C0C9
:1032B00080E0089590916F009D7F90936F00089536
:1032C000EFE6F0E08081826080830895CF92DF9204
:1032D000EF92FF92CF93DF93C82F0E94531994E08F
:1032E000C99FE0011124FE01EB50FB4FC080D1804B
:1032F000E280F38081110E946019C559D84FC7013F
:10330000B6010E9425B8288139814A815B810E94DB
:1033100084B8DF91CF91FF90EF90DF90CF90089528
:10332000CF92DF92EF92FF92CF93DF93C82F0E944C
:10333000531994E0C99FE0011124FE01E751FB4FAE
:10334000C080D180E280F38081110E946019C5594C
:10335000D84FC701B6010E9425B8288139814A811A
:103360005B810E9484B8DF91CF91FF90EF90DF9056
:10337000CF9008950E9453199091BA0C9093B90C74
:103380009093B80C9093B70C94E69093B60C20ED04
:1033900033E03093FD0B2093FC0B81110E946019E8
:1033A00081E08093E8040895CF93DF93CDB7DEB733
:1033B0002C970FB6F894DEBF0FBECDBF0E94A39E20
:1033C0000E9453199CE0E5EFF4E0DE0111960190B4
:1033D0000D929A95E1F781110E946019CE01019634
:1033E0000E9442922C960FB6F894DEBF0FBECDBF5E
:1033F000DF91CF9108952F923F924F925F926F92FB
:103400007F928F929F92AF92BF92CF92DF92EF9274
:10341000FF920F931F93CF93DF9300D0CDB7DEB70A
:103420008090570290905802A0905902B0905A0292
:1034300040905B0250905C0260905D0270905E0272
:10344000C0905F02D0906002E0906102F090620252
:103450000E94A7100E94F5100AE11EE086E292E0A9
:103460009B838A8380E5282E8EE0382E19828981FD
:103470000E944413F80185919591A591B491EA8138
:10348000FB8181939193A193B193FB83EA83F10133
:1034900085919591A591B491EA81FB81808791876F
:1034A000A287B387F981FF5FF9830C5F1F4F84E028
:1034B000280E311CF330D9F660916E0470916F04C0
:1034C00080917004909171040E94B7660E9450151B
:1034D000A5019401609157027091580280915902A0
:1034E00090915A020E941EB881111CC0A301920142
:1034F00060915B0270915C0280915D0290915E022E
:103500000E941EB881110EC020915F0230916002AE
:103510004091610250916202C701B6010E941EB83B
:103520008823B9F00F900F900F90DF91CF911F91EA
:103530000F91FF90EF90DF90CF90BF90AF909F9052
:103540008F907F906F905F904F903F902F900C9452
:10355000D4190F900F900F90DF91CF911F910F9181
:10356000FF90EF90DF90CF90BF90AF909F908F90A3
:103570007F906F905F904F903F902F90089580FFC5
:1035800004C09091570490FD8E7F81FF04C09091FC
:10359000570491FD8D7F82FF04C09091570492FDE6
:1035A0008B7F08950C94F76580914A04659955C006
:1035B000816080934A049091030180914A0491FDB7
:1035C0004EC0826080934A0480914A044B9949C05E
:1035D000846080934A048091E70480FF10C080914A
:1035E0009B0580FF0CC080914A0480FF08C0809139
:1035F0002E07816080932E0780E00E947692809152
:10360000E704869580FF11C080919B05869580FF19
:103610000CC080914A0481FF08C080912E0782600F
:1036200080932E0781E00E9476928091E704869530
:10363000869580FF18C080919B058695869580FFB2
:1036400012C080914A0482FF0EC080912E078460D0
:1036500080932E0782E00C9476928E7FAACF8D7F86
:10366000B1CF8B7FB6CF089580919A05882331F032
:1036700062E070E080E090E00C94C616089510922D
:10368000680410925C0410925D0410925E04109223
:103690005F04109264041092650410926604109204
:1036A00067041092600410926104109262041092F8
:1036B00063040895CF93C091680480E0C13069F13C
:1036C000C23069F50E94F91460936004709361043C
:1036D000809362049093630481E0809368040E9465
:1036E000517960935C0470935D0480935E049093C1
:1036F0005F04C23089F08091890590918A05019616
:1037000090938A05809389051092690410926A0447
:1037100010926B0410926C0481E0CF9108950E9486
:103720003F1BDACFCF93FC0120812B33B1F02091E6
:103730002D07243090F4C62FBC018091A905F0E636
:103740008F9FC001112484559A4F0E9416C08C2F60
:103750000E943D1481E0CF91089580E0FCCF8F92CC
:103760009F92AF92BF92CF92DF92EF92FF920F9310
:103770001F93CF93DF931092C4031092C3032FE3E0
:103780002093C7031092C6031092C5031092BF0383
:103790001092C0031092C1031092C2039C01F90160
:1037A00090812F5F3F4F9032D1F39E34C9F48181D5
:1037B00090ED980F9A3020F08D3211F08B3281F419
:1037C00032969F012F5F3F4F808180538A3008F4EB
:1037D0006CC09F012F5F3F4F8081803209F467C02A
:1037E000F093010CE093000C8F010F5F1F4FC0811D
:1037F0006AE270E0C8010E940BC0009731F0FC0142
:10380000319780818032E1F31182CD3421F0C435CB
:1038100011F0C734E9F5F80180810F5F1F4F803246
:10382000D1F380538A30A0F5C093C70330E020E085
:103830006AE0AF014F5F5F4F629FC001639F900DD1
:1038400011242081FC01E20FF11D27FDFA959F0153
:1038500020533109FA01808180538A3050F330932C
:10386000C6032093C503DF0131968C918032D9F3D2
:10387000CD3449F52E31310539F0DCF427313105ED
:1038800019F02C313105F9F4B093C403A093C303AC
:10389000DF91CF911F910F91FF90EF90DF90CF902C
:1038A000BF90AF909F908F900895F9018ACFF90152
:1038B00090CF253731053CF0273731052CF3203ADE
:1038C000F3E03F0709F3D091000C40E050E0BA016B
:1038D00010E000E0C12CD12C7601C394FD0131969B
:1038E0008C91882309F47FC08132E1F4CD34D1F486
:1038F00020323105B9F44093BF035093C003609365
:10390000C1037093C203F093C403E093C30363E263
:1039100070E0CF010E940BC0009709F4B9CFFC0101
:103920001082B6CF81548A3108F058C0DF019D91D2
:10393000903291F0A0EDA90FAA30E8F09E3271F418
:10394000918190539A30B8F00115110519F48F0147
:103950000150110990E013C0FD01E8CF9D3211F034
:103960009B3291F79181A0EDA90FAA3020F09E32F1
:1039700059F79281E6CF9E2F9D1B309759F3A82FC0
:10398000B0E04601570104C0880C991CAA1CBB1C5E
:103990008A95D2F7482959296A297B29AB55BC4F0A
:1039A0009C9380818154DF018A3108F497CFDF0135
:1039B0008191882309F492CF90ED980F9A30B8F353
:1039C00093ED980F923098F38B3289F3CD010196E5
:1039D000EC91E03209F082CFDC01F8CF011511053E
:1039E00001F78D01DECF1093C4030093C30340930E
:1039F000BF035093C0036093C1037093C20348CFC9
:103A00000E94881697FD0CC00E9488166F3F7105B2
:103A10008105910509F034F40E948816862F0895D7
:103A200080E008958FEF0895809191039091920323
:103A3000892B41F00E94001D91E0811101C090E0AE
:103A4000892F089591E0FCCF0E94AB14882341F0A8
:103A500081E02091910330919203232B09F480E0BF
:103A60000895CF92DF92EF92FF926A017B010E944C
:103A7000241D882331F0FF90EF90DF90CF900C94BD
:103A80009C16C701B601FF90EF90DF90CF9008958C
:103A90008F929F92AF92BF92CF92DF92EF92FF925E
:103AA0000F931F93CF9384E3E82E87E0F82E07E56A
:103AB00012E096E5C92E9CE0D92EC0E088E58C0F77
:103AC0000E94241D882309F4A7C00E949C164B0164
:103AD0005C018C2F0E945214882309F493C0F801D2
:103AE0002081318142815381C501B4010E94BDBC56
:103AF000F7016083718382839383CF5FF4E0EF0EDD
:103B0000F11C0C5F1F4F84E0C80ED11CC330B1F60E
:103B100085E40E94241D882309F489C00E949C1614
:103B20006B017C0183E00E945214882371F0209184
:103B30006302309164024091650250916602C701B0
:103B4000B6010E94BDBC6B017C01C0924007D092BF
:103B50004107E0924207F092430740E050E0BA018B
:103B600086E40E94311D20E030E0A9010E941DBFC3
:103B7000181684F40E949C1620E030E040E752E4DE
:103B80000E94B7BD60930E0270930F0280931002E3
:103B9000909311028091FE0B83FD28C080918805CF
:103BA000882321F1209163023091640240916502E3
:103BB00050916602609140077091410780914207E1
:103BC000909143070E94BCBC2091950530919605C9
:103BD00040919705509198050E94BDBC6093950552
:103BE000709396058093970590939805CF911F91B8
:103BF0000F91FF90EF90DF90CF90BF90AF909F908C
:103C00008F900895F6012081318142815381C50151
:103C1000B4010E94BCBC6CCFF80180819181A2816B
:103C2000B381F70180839183A283B38366CF8091B0
:103C3000630290916402A0916502B0916602809344
:103C4000400790934107A0934207B093430785CF65
:103C5000CF93DF93EB010E94241D882321F0DF9195
:103C6000CF910C949816CE01DF91CF910895CF9308
:103C7000DF93C82FD62F0E94241D882321F0DF91C7
:103C8000CF910C94141D8C2F0E94AB14811101C094
:103C90008D2FDF91CF91089510927A0410927B04BA
:103CA00010927C0410927D04EEE7F4E084E6DF01DC
:103CB0001D928A95E9F70895EF92FF920F931F9353
:103CC000CF93DF930EE714E0C5E07801D5E0F7016C
:103CD00061917191819191917F0120E030E0A90182
:103CE0000E941EB881110EC0D15089F7C1500C5EE0
:103CF0001F4FC111EACFDF91CF911F910F91FF901C
:103D0000EF90089581E0F7CF1092540385E08093FF
:103D100053030895129A08955F9A80919C058E7FAF
:103D200080939C058A9A80919C058D7F80939C0549
:103D300080910801809581708093060180919C0597
:103D40008B7F80939C050C948A1E9091020D93FBAF
:103D5000882780F993FF06C081E09091830C911130
:103D600001C080E00895E9E6F7E01082118208952D
:103D70008F929F92AF92BF92CF92DF92EF92FF927B
:103D80000F93CF93DF931F92CDB7DEB75C017B011A
:103D900049016B01C40ED51EF501808191810E94FD
:103DA000EBBB8983002311F0F7018083BE016F5FB5
:103DB0007F4FC4010E94C065F50180819181019609
:103DC00091838083FFEFEF1AFF0AEC14FD0421F7C3
:103DD00080E00F90DF91CF910F91FF90EF90DF90F7
:103DE000CF90BF90AF909F908F9008959091C0001A
:103DF00095FFFCCF8093C6000895CF93DF93EC012D
:103E0000FE0184912196882319F00E94F61EF8CFB6
:103E1000DF91CF910895CF93C82FCB010E94FD1E53
:103E200089E092E10E94FD1E8AEA9DE0CC2311F018
:103E30008FEA9DE00E94FD1E8AE0CF910C94F61E51
:103E4000CF9384ED9DE00E94FD1E8CB1C1E085FB07
:103E5000882780F96EEC7DE08C270E940B1F8091F3
:103E600003018695817068EC7DE08C270E940B1F12
:103E700089B183FB882780F962EC7DE08C270E9462
:103E80000B1F82B369EB7DE085FB882780F9CF911A
:103E90000C940B1FE0912C07F0E0E553F34F808169
:103EA000882339F080E49CE00E94FD1E8AE00C9497
:103EB000F61E08950E94F61E80E896E00C94FD1E02
:103EC000811107C082EE99E00E94FD1E8AE00C94E9
:103ED000F61E8EE292E0F8CF0F931F93CF93DF93FD
:103EE0008B010E94FD1EE8018991882319F00E9430
:103EF000F61EFACFDF91CF911F910F91089583EFB6
:103F000093E00C94FD1E8DEE93E00C94FD1E0F9338
:103F10001F93CF93FC0120812223D9F02A30C9F0CE
:103F20002D30B9F08C0160E00E94921BC82F8823CD
:103F300059F00E94831FB80183E39CE00E946C1F2C
:103F400083E295E10E94FD1E8C2FCF911F910F916E
:103F50000895C1E0F9CF7F928F929F92AF92BF9266
:103F6000CF92DF92EF92FF920F931F93CF93DF9345
:103F70001F92CDB7DEB77C0159018B016B01C40ED6
:103F8000D51E0C151D05C9F1F70180809180F8013F
:103F900071908F017982C4010E94EBBB781601F108
:103FA000672DC4010E94F3BBC4010E94EBBB998141
:103FB0008917B1F00E94831F89E492E00E94FD1EE0
:103FC00081E00F90DF91CF911F910F91FF90EF90C3
:103FD000DF90CF90BF90AF909F908F907F9008958B
:103FE000BE016F5F7F4FC5010E94C065F7018081F0
:103FF0009181019691838083C4CF80E0E2CFCF93FB
:10400000DF9300D01F92CDB7DEB78091880588235B
:1040100089F083E390E09C838B831A8219829E014E
:104020002F5F3F4F40E150E069E875E0CE01039615
:104030000E94AB1F0F900F900F900F90DF91CF91C8
:104040000895CF92DF92EF92FF92809168048150A1
:10405000823008F062C0109268040E945179609327
:104060006404709365048093660490936704809160
:104070008B0590918C05019690938C0580938B0510
:10408000C0906904D0906A04E0906B04F0906C04D6
:104090000E94F914AB01BC014093690450936A0477
:1040A00060936B0470936C0480918D0590918E05E4
:1040B000A0918F05B09190058C199D09AE09BF099B
:1040C000840F951FA61FB71F80938D0590938E05B3
:1040D000A0938F05B09390050E94F914C0909105AC
:1040E000D0909205E0909305F0909405C616D706FF
:1040F000E806F90650F40E94F91460939105709354
:10410000920580939305909394050E94FF1F81E090
:10411000FF90EF90DF90CF90089580E0F9CFCF939C
:10412000DF9300D01F921F92CDB7DEB781E080935E
:10413000880580E1E9E8F5E0DF011D928A95E9F75D
:104140000E94FF1F86E18D8382E390E09C838B8336
:104150001A8219829E012F5F3F4F41E050E0BE015D
:104160006B5F7F4FCE0103960E94AB1F0F900F90A5
:104170000F900F900F90DF91CF910895CF92DF9223
:10418000EF92FF920F931F93CF93DF93CDB7DEB7DC
:10419000A0970FB6F894DEBF0FBECDBF61157105B5
:1041A0008105910579F100E0C42ED12CF12CE12C90
:1041B000A70196010E9411BC11E0100FE1E0F0E0B0
:1041C000EC0FFD1FE00FF11D07FDFA956083B901AB
:1041D000CA01012F611571058105910549F711503B
:1041E00010F1E1E0F0E0EC0FFD1FE10FF11D17FD14
:1041F000FA95908187E39A3008F480E3890F0E9452
:10420000F61EEDCF80E3A0960FB6F894DEBF0FBE8A
:10421000CDBFDF91CF911F910F91FF90EF90DF9075
:10422000CF900C94F61EA0960FB6F894DEBF0FBE8A
:10423000CDBFDF91CF911F910F91FF90EF90DF9055
:10424000CF900895CF92DF92EF92FF926A017B01A7
:104250000E94FD1E4AE0C701B601FF90EF90DF907B
:10426000CF900C94BE20CF93DF93EB010E94FD1EF4
:10427000BE0190E080E04AE0DF91CF910C94BE2037
:10428000CF92DF92EF92FF926B017C01F7FE0BC0A1
:104290008DE20E94F61EF094E094D094C094C11C6C
:1042A000D11CE11CF11C4AE0C701B601FF90EF9060
:1042B000DF90CF900C94BE20CF93DF93EB010E9450
:1042C000FD1EBE01DD0F880B990BDF91CF910C9481
:1042D0004021CF9384E50E94241DC0E08823F9F09B
:1042E0000E94001DC82F1816D4F40E94831F8DE46D
:1042F0000E94F61E6091C5037091C603072E000C44
:10430000880B990B0E9440216C2FCC0F770B89E40E
:1043100097E00E945C218AE00E94F61ECFEF8C2F6E
:10432000CF9108958F929F92AF92BF92CF92DF92DA
:10433000EF92FF92CF936B017C01B42E20E030E02E
:10434000A9010E941EB887FF07C08DE20E94F61ED9
:10435000F7FAF094F7F8F094C0E060E070E080E0E5
:104360009FE3CB1541F02DEC3CEC4CEC5DE30E945F
:1043700084B8CF5FF6CF9B01AC01C701B6010E94A4
:10438000BDBC6B017C010E9430BE4B015C014AE068
:104390000E94BE20CC2391F1C501B4010E9423B834
:1043A0009B01AC01C701B6010E94BCBC6B017C0142
:1043B0008EE20E94F61EC15008F120E030E040E29B
:1043C00051E4C701B6010E9484B84B015C010E9410
:1043D00029BE6B01770FEE08FF08C701B6010E94E6
:1043E0004021C701B6010E9425B89B01AC01C5015F
:1043F000B4010E94BCBC6B017C01DDCFCF91FF906A
:10440000EF90DF90CF90BF90AF909F908F900895E6
:104410007F928F929F92AF92BF92CF92DF92EF9254
:10442000FF920F931F93CF93DF938DE094E00E9450
:10443000FD1E60917A0470917B0480917C049091C0
:104440007D0445E00E9492218AEF93E00E94FD1EC8
:10445000C12CD12C7601C9E0C15021F080E20E942C
:10446000F61EFACFC701B6010E9440218FEFC81A8D
:10447000D80AE80AF80A95E0C916D104E104F10463
:1044800051F78AE00E94F61ECEE7D4E0C12CD12C71
:10449000760180E20E94F61EC701B6010E9440210B
:1044A0008E0185E0782E80E20E94F61EF801808061
:1044B0009180A280B380A5019401C501B4010E943E
:1044C000AFBF811135C020E030E0A901C501B401C2
:1044D0000E941DBF87FD03C08BE20E94F61E45E0CF
:1044E000C501B4010E9492217A940C5E1F4F711095
:1044F000DACF8AE00E94F61E8FEFC81AD80AE80ABF
:10450000F80A249695E0C916D104E104F10409F6ED
:104510008AE0DF91CF911F910F91FF90EF90DF9094
:10452000CF90BF90AF909F908F907F900C94F61E8D
:10453000B12C80E20E94F61EB3948DE3F8E0BF1226
:10454000F9CFD2CFCF92DF92EF92FF926A017B0137
:104550000E94FD1E42E0C701B601FF90EF90DF9080
:10456000CF900C9492212F923F924F925F926F9234
:104570007F928F929F92AF92BF92CF92DF92EF92F3
:10458000FF920F931F93CF93DF93CDB7DEB7EF97D3
:104590000FB6F894DEBF0FBECDBF70E060E085E4DB
:1045A0000E94281E8823E1F080E89DE0EF960FB678
:1045B000F894DEBF0FBECDBFDF91CF911F910F9159
:1045C000FF90EF90DF90CF90BF90AF909F908F9033
:1045D0007F906F905F904F903F902F900C94FD1EB6
:1045E00065E070E083E40E94281E782E60E085E597
:1045F0000E94371E8FAB40E050E06DE473E483E52A
:104600000E94311D0E9429BE072E000C880B990BB9
:104610000E9425B86D837E831C010E9451796F83AF
:10462000788789879A8760914E0270914F026F5008
:104630007109072E000C880B990B0E9425B89B016D
:10464000AC016D817E81C1010E941DBF18161CF452
:1046500088EF9CE0ABCF2F81388549855A85205E55
:10466000314B4F4F5F4F2BAB3CAB4DAB5EAB8CE652
:104670009DE00E94FD1E0E94DF8A8FE78093730CED
:1046800081E0809350028F819885A985BA858F87B4
:10469000988BA98BBA8B8AA79BA7ACA7BDA72FE73E
:1046A00030E040E050E02B873C874D875E8718A2C2
:1046B00019A21AA21BA21C8E1D8E1E8E1F8E812C6B
:1046C000912C5401198230E43D8B4CE14E8B56E421
:1046D0005F8B188E198E1A8E1B8E1EA68FA698AA17
:1046E000A9AABAAAFFE7CF2ED12CE12CF12C1DA24A
:1046F0001EA21FA218A681E08CA31C8A1B8A00E0C0
:1047000010E01AAE1BAEA72D770CBB0BB9AFA8AF4C
:1047100080915002882309F489C00E9451792B01AD
:104720003C01B0910605B9A7BB2309F46BC00E94F8
:10473000338C00916D0C10916E0C20916F0C2AAF90
:104740003091700C3BAF288D398D4A8D5B8DB8014F
:104750008AAD9BAD0E941DBF181634F4088F198FC7
:104760004AAD4A8F5BAD5B8F29813D894E895F8958
:10477000B8018AAD9BAD0E941EB887FF06C00983B1
:104780001D8B8AAD8E8B9BAD9F8BACA198014AADE2
:104790005BAD6D817E81C101AA2309F4A6C10E948F
:1047A0001EB887FF2FC0B301A2018F859889A98900
:1047B000BA89481B590B6A0B7B0BDB01CA0188586D
:1047C0009341A109B109B7FD1DC08B859C85AD85BD
:1047D000BE858C199D09AE09BF09B595A79597951A
:1047E00087958093730C4DA35EA36FA378A79D81DB
:1047F000988FAE81A98F2A8E3B8E4F82588669860C
:104800007A861CA220E030E040EF51E46D817E8189
:10481000C1010E94BDBC98014AAD5BAD0E941EB8AB
:1048200087FF39C088EF9CE00E94FD1E1092500265
:10483000EF960FB6F894DEBF0FBECDBFDF91CF91DC
:104840001F910F91FF90EF90DF90CF90BF90AF90AE
:104850009F908F907F906F905F904F903F902F90A0
:104860000C94DF8A4BEEC42ED12CE12CF12C94C198
:1048700024E130E040E050E02B873C874D875E87A5
:1048800034E1C32ED12CE12CF12C94C1CB86DC86F3
:10489000ED86FE868FC1D301C2012AA53BA54CA59A
:1048A0005DA5821B930BA40BB50BB7FD48C080E040
:1048B0000E94739F8AE00E94F61ED301C2018053BA
:1048C000984FAF4FBF4F8AA79BA7ACA7BDA79EA588
:1048D000911171C02FA538A949A95AA9B8018AAD6B
:1048E0009BAD0E941DBF18160CF051C020E030E0B7
:1048F00040E050E4B8018AAD9BAD0E94BDBC6FA7FB
:1049000078AB89AB9AABA3019201205E314B4F4F3C
:104910005F4F2BAB3CAB4DAB5EAB20E030E040ECEF
:1049200050E46D817E81C1010E94BCBC98014AADFA
:104930005BAD0E941EB8881F8827881F8EA78F81B5
:104940009885A985BA858CAF9DAFAEAFBFAF2F85D7
:10495000388949895A89281739074A075B0720F49B
:104960002CAF3DAF4EAF5FAF8CAD9DADAEADBFAD2B
:10497000481A590A6A0A7B0A91E849169FE45906BF
:1049800092E16906710470F18AED9CE04DCFD3018C
:10499000C2012BA93CA94DA95EA9821B930BA40BB4
:1049A000B50B4CE052E16BE172E1B7FDC8CF80E09E
:1049B0000E944F8CC4CF20E030E040EF51E46D8185
:1049C0007E81C1010E94BCBC9B01AC01B8018AADD3
:1049D0009BAD0E941EB887FFB2CF4AE252E16AE364
:1049E00072E1E5CFA8ADB9AD2B893C89A217B30719
:1049F0000CF08ECE233031050CF48ACE8DE79CE08E
:104A00000E94FD1E80E69CE00E94FD1EB501A401EF
:104A100089E79CE00E94A2228AE00E94F61E80E6BE
:104A20009CE00E94FD1E4C8D5D8D6E8D7F8D85E717
:104A30009CE00E94A2228AE00E94F61E80E69CE092
:104A40000E94FD1E48A159A16AA17BA181E79CE0BB
:104A50000E94A2228AE00E94F61E3FA9332361F140
:104A60008092740C9092750CA092760CB092770C98
:104A70002CEA35EC47E25EE36C8D7D8D8E8D9F8D4B
:104A80000E9484B86093780C7093790C80937A0CB0
:104A900090937B0C2CEA35EC47E25EE368A179A1A8
:104AA0008AA19BA10E94B7BD60937C0C70937D0C82
:104AB00080937E0C90937F0CEF960FB6F894DEBF38
:104AC0000FBECDBFDF91CF911F910F91FF90EF905F
:104AD000DF90CF90BF90AF909F908F907F906F901E
:104AE0005F904F903F902F9008950E941DBF181621
:104AF0000CF088CED301C2012F81388549855A85B3
:104B0000821B930BA40BB50BAC01BD01485853415C
:104B10006109710977FD76CE4B895C89452B09F4D3
:104B200002C12DA13EA14FA158A5280F391F4A1F30
:104B30005B1F2F87388B498B5A8B2DA13EA14FA12C
:104B400058A5281B390B4A0B5B0BC701B6010E9405
:104B500001BC2F85388949895A890E9433BCCB848E
:104B6000DC84ED84FE84C20ED31EE41EF51E34E107
:104B7000C316D104E104F1040CF47ACE4CEEC41651
:104B8000D104E104F1040CF06DCE50E8C516D10457
:104B9000E104F1040CF47ACECB86DC86ED86FE8649
:104BA0008EEF90E0A0E0B0E08C199D09AE09BF093E
:104BB0006C017D0184E69DE00E94FD1E6B857C8575
:104BC0008D859E850E9440218FE59DE00E94FD1EFF
:104BD000C701B6010E94402149815D896E897F89A4
:104BE00088E59DE00E94A222488D598D6A8D7B8DBB
:104BF00081E59DE00E94A2224B895C8943305105EA
:104C00000CF491C0C701B6010E9425B820E030E045
:104C100040E850E40E9484B84B015C0129813D8941
:104C20004E895F89688D798D8A8D9B8D0E94BCBC71
:104C30002BED3FE049E450E40E9484B820E030E0EE
:104C400040E05FE30E9484B89B01AC01C501B40160
:104C50000E94B7BD4B015C016F85788989899A896B
:104C60000E9425B82FE632E143E85AE30E9484B857
:104C700069837A838B839C83B501A4018BE49DE0D7
:104C80000E94A22249815A816B817C8185E49DE04A
:104C90000E94A2222AE939E949E15FE3C501B40192
:104CA0000E9484B84B015C01AC019B0169817A814F
:104CB0008B819C810E9484B820E030E040E05EE37C
:104CC0000E9484B868A379A38AA39BA3A501940139
:104CD000C501B4010E94BDBC29813A814B815C8130
:104CE0000E94B7BD6C8F7D8F8E8F9F8F85E39DE077
:104CF0000E94FD1EB501A4018FE29DE00E94A22248
:104D00004C8D5D8D6E8D7F8D89E29DE00E94A2228B
:104D100048A159A16AA17BA183E29DE00E94A22241
:104D20008AE00E94F61E8B859C85AD85BE858C0D24
:104D30009D1DAE1DBF1DB595A79597958795809331
:104D4000730C8B899C8901969C8B8B8B9D8199839D
:104D5000AE81AD8B2E8A3F8A4F86588A698A7A8ABD
:104D6000B9A5BCA34FCD8DE00E94F61E8AE00C943D
:104D7000F61EE8ECF3E08081818383E49CE00E94EE
:104D8000FD1E6091650C7091660C8091670C90918E
:104D9000680C6F5F7F4F8F4F9F4F0E9440210E9492
:104DA000B3260C944A1F0F931F93CF938C01C62FE9
:104DB0008EE29CE00E94FD1EC8010E94FD1E8AE357
:104DC0000E94F61E6C2F70E090E080E00E9440216F
:104DD000CF911F910F910C94B326CF93DF93EC01E9
:104DE0008991882319F00E94F61EFACFDF91CF91A6
:104DF0000C94B3268091C8039091C9032FEF3FEF25
:104E0000981751F0E92FF0E0E853FC4F228130E091
:104E10009F5F9F779093C903C90108952F923F9296
:104E20004F925F926F927F928F929F92AF92BF92BA
:104E3000CF92DF92EF92FF920F931F93CF93DF9366
:104E400000D000D000D01F92CDB7DEB7F82E8091F1
:104E50002D07843008F0BDC180912D07843008F003
:104E60005EC08091C8039091C903891B8F7709F4B4
:104E700056C00E94FA2697FDEFCF8A3019F08D3088
:104E800009F025C110923C038091630C9091640C51
:104E9000FC01E452FD4F1082892B09F4ACC0109242
:104EA000640C1092630C0CED12E0F80181918032D9
:104EB00009F4A4C08E3409F0F7C066E573E0C801B8
:104EC0000E94D4B76C01892B41F06EE470E0C801F8
:104ED00004960E940BC0009709F4C8014AE050E014
:104EE00070E060E001960E9456B54B015C01809134
:104EF000650C9091660CA091670CB091680C0196BE
:104F0000A11DB11D88169906AA06BB0609F478C032
:104F1000CD2809F075C083E293E00E94D6658091A8
:104F2000020D82FB002700F982FF53C11A82198209
:104F3000CC24C3944091FE0C5091FF0C6091000D65
:104F40007091010D8091FA0C9091FB0CA091FC0CDA
:104F5000B091FD0C481759076A077B0708F4C12C6C
:104F600010E680E1E82E99E6D92E80912D07843055
:104F700008F02FC1C1102DC18091880C9091890C2F
:104F8000A0918A0CB0918B0C8093FE0C9093FF0C37
:104F9000A093000DB093010D41E050E0BE016D5FA4
:104FA0007F4F80E89CE00E94D880019709F098C06C
:104FB0008B8190E04090FE0C5090FF0C6090000DB3
:104FC0007090010D8090FA0C9090FB0CA090FC0C5E
:104FD000B090FD0C8F3F980709F085C04814590424
:104FE0006A047B0408F07FC00E947F1F8BE593E07A
:104FF0000E94FD1EBACF0E94CD8E2ECF8F0155CFBD
:105000006AE270E0C8010E943AC09C01009701F179
:10501000982F901BE12C992339F09150F801E90F5A
:10502000F11D8081E826F7CF4AE050E070E060E0B3
:10503000C90101960E9456B54E2C512C712C612C41
:10504000641575058605970531F084E093E065CF1A
:105050008AED92E062CF8092650C9092660CA092ED
:10506000670CB092680C80912F078130B9F067E42B
:1050700070E0C8010E940BC0009781F04AE050E048
:1050800070E060E001960E9456B5643071058105BC
:10509000910520F483E692E00E94FD1E61E08CED14
:1050A00092E00E94921BD8CE8091020D80FFDBCF50
:1050B0006FEC74E1C8010E94D4B7009729F0FC019D
:1050C000838180538A3078F68AED92E026CF23E6FA
:1050D0003CE04CED52E06CE373E00E940514BCCE62
:1050E0008FEF9FEF67CF4091A905242F30E08A30E2
:1050F00079F08D3069F0481459046A047B0408F48F
:105100005BC089819A81009719F001969A838983FF
:1051100010923D0389819A81129FF001139FF00D37
:105120001124E455FA4FE80FF91F1082892BE1F1A1
:105130001A82198280E00E943D14481459046A04BE
:105140007B0408F412CF0E94642C80E89CE00E944B
:1051500053838091F90C882351F181508093F90C8D
:105160008D9DC001112462E0825E9A4F0E942B8BBC
:10517000E091F90C24E0E29FF0011124E65EFA4F81
:1051800040815181628173814093FE0C5093FF0CEA
:105190006093000D7093010D80E89CE00E944480B4
:1051A0000E948C7BC02EE1CE0E94CD8EC6CF0E9485
:1051B0007683E0922F07F6CF419FA001112444553A
:1051C0005A4F9E012F5F3F4F6DE373E00E9405141D
:1051D000CCCE0E9451794B015C01F11004C080914A
:1051E0001905882351F080920A0590920B05A09230
:1051F0000C05B0920D05FF24F39480919E039091CD
:105200009F03A091A003B091A1030097A105B10550
:10521000B1F040910A0550910B0560910C05709119
:105220000D05840F951FA61FB71FA5019401281B0C
:10523000390B4A0B5B0BDA01C901B7FFD3C0809170
:10524000080290910902A0910A02B0910B02892BE9
:105250008A2B8B2B09F0D6C0809142039091430397
:10526000A0914403B0914503A5019401281B390B7B
:105270004A0B5B0BDA01C901B7FD8DC19091B90CE6
:105280008091BA0C6091690710916A07981781F0B4
:105290008091BA0C38E4839FC00111248458984F40
:1052A000FC01EA5BFF4F6081895B9F4FFC0110812D
:1052B00070E089E00E944878612F70E087E00E94EA
:1052C000487880910905882309F458C1E0902002AC
:1052D000F090210200912202109123026091710C42
:1052E0007091720C6E5F7F4F072E000C880B990B2C
:1052F0000E9425B89701A8010E941EB887FD3EC1F3
:105300003090BA0C212C1C821D821E828091B90C17
:10531000831509F4C8C0832D90E028E4289FF0018C
:10532000299FF00D1124E458F84F45895689678963
:10533000708D452B462B472B89F4418D528D638D03
:10534000748D452B462B472B49F4458D568D678D23
:1053500070A1452B462B472B09F43FC048E4489FDA
:105360009001499F300D1124C9018458984F6C0158
:10537000FC0161817281838194810E946BBF2B014A
:105380003C01F60161A172A183A194A10E9423B8FE
:105390006F83788789879A87F60165A176A187A1AF
:1053A00090A50E9423B89B01AC016F817885898507
:1053B0009A850E94B7BDA30192010E9484B83B0167
:1053C0006C01222D3C814D815E810E941DBF18160B
:1053D00024F4262C7C82CD82DE823394F32DFF7060
:1053E0003F2E94CF0E947F1F6091000C7091010CA2
:1053F0008AE693E00E946C1F8AE00E94F61E80E01D
:105400000E94028B9091B90C8091BA0C981749F0C8
:1054100080920A0590920B05A0920C05B0920D05A2
:105420001BCFFF2019F01092460316CF0E9451792E
:1054300000910A0510910B0520910C0530910D0586
:10544000C0900802D0900902E0900A02F0900B028E
:105450000C0D1D1D2E1D3F1D601B710B820B930B30
:1054600097FDE1CF809146038111F6CE81E08093D4
:1054700046035F9A80919C058E7F80939C058A9A53
:1054800080919C058D7F80939C058091080180957B
:1054900081708093060180919C058B7F80939C0591
:1054A0000E948A1ED9CE2091180230911902409193
:1054B0001A0250911B02622D7C818D819E810E9477
:1054C00084B89701A8010E94BDBC3B016C012090EB
:1054D0001C0230901D0240901E0250901F029B0142
:1054E000AC01B701C8010E941DBF181664F09101FC
:1054F000A201B301C6010E941DBF730186011816E7
:1055000014F47101820140903E0350903F0360907B
:105510004003709041039701A801C301B2010E94AA
:105520001DBF1816D4F420E037ED43EA5CE3B70161
:10553000C8010E9484B86B017C0128E431EE4AE77F
:105540005FE3C301B2010E9484B89B01AC01C701B3
:10555000B6010E94BDBC7B018C01C701D8018093BC
:105560003E0390933F03A0934003B0934103B701E0
:10557000C8010E9429BECB010E94401524E6820E7C
:10558000911CA11CB11C8092420390924303A092F3
:105590004403B09245030E94CD8E80912F0788234B
:1055A00009F42DC180913E02882369F18091540352
:1055B000811129C090911905911108C0809168044A
:1055C000813021F08091020D82FF1DC08091530334
:1055D00087FD03C0815080935303959B03C085E0F2
:1055E000809353038091530387FF0DC081E0809324
:1055F0005403911106C088EE93E09093AB0580931D
:10560000AA050E94642C809100028130C1F0809133
:10561000020D80628093020D81E08093000264EFAE
:1056200071E080E090E00E94C6160E94878380911E
:10563000020D83FF04C01092F80C0E947D7B0E9433
:1056400051796B017C01109107021123F1F08091D7
:1056500046078823D1F040914F0350915003609149
:1056600051037091520346015701841A950AA60A04
:10567000B70AB501A40177FD1AC0833009F4E7C069
:105680000CF0D6C081300CF0DBC0212F30E0A8EE4A
:10569000B3E00E9465BCC60ED71EE81EF91EC0927C
:1056A0004F03D0925003E0925103F0925203809145
:1056B0006804813009F072C00E9451796B017C014D
:1056C00080914B0390914C03A0914D03B0914E03F8
:1056D000A7019601281B390B4A0B5B0BDA01C901A4
:1056E000B7FD3AC08090690490906A04A0906B0462
:1056F000B0906C040E94F914AB01BC0140936904A2
:1057000050936A0460936B0470936C0480918D05D0
:1057100090918E05A0918F05B091900588199909F7
:10572000AA09BB09840F951FA61FB71F80938D057B
:1057300090938E05A0938F05B0939005D701C60175
:10574000805F984DAF4FBF4F80934B0390934C03B6
:10575000A0934D03B0934E0380914703909148036B
:10576000A0914903B0914A0346015701881A990A4A
:10577000AA0ABB0AD501C401B7FD10C020E8C20EB9
:105780002EEED21EE11CF11CC0924703D0924803BA
:10579000E0924903F0924A030E94FF1F80919D030B
:1057A000882369F10E9451790091990310919A031D
:1057B00020919B0330919C03601B710B820B930B18
:1057C00097FD1DC00E9451796B017C0120919D03C2
:1057D00030E0A8EEB3E00E9465BCC60ED71EE81EFE
:1057E000F91EC0929903D0929A03E0929B03F09223
:1057F0009C0380E00E94739F8AE00E94F61E2A9616
:105800000FB6F894DEBF0FBECDBFDF91CF911F91D1
:105810000F91FF90EF90DF90CF90BF90AF909F904F
:105820008F907F906F905F904F903F902F90089552
:10583000843009F02ACF0E94831F87EA93E004C0D6
:105840000E94831F86ED93E00E94FD1E1ECF0E94E2
:10585000831F8FEB93E0F8CFCF93DF938091B90C48
:105860009091BA0C891B80958F7019F40E940E27B5
:10587000F5CF8091B90C8F5F8F70A091B90C98E42F
:10588000A99FD0011124FD01E458F84FEF011992AE
:105890009A95E9F798E09083AF56B84F90E1EBEB1B
:1058A000FCE001900D929A95E1F72091B90C90914E
:1058B000BA0C291303C094E69093B60C8093B90CEC
:1058C000DF91CF910C9460199091B90C8091BA0C32
:1058D000981306C08091FC0B9091FD0B892B21F051
:1058E00080E00E940E27F0CF0895FC0120813181D5
:1058F000428153816091220C7091230C8091240C81
:105900009091250C0E9484B80E942ABF6093C70C16
:105910007093C80C8093C90C9093CA0C9091B90CE9
:105920008091BA0C98130C942C2C0E94642C0E9429
:1059300053194091C70C5091C80C6091C90C7091DB
:10594000CA0C4093010550930205609303057093C0
:10595000040581110C94601908954F925F926F9223
:105960007F928F929F92AF92BF92CF92DF92EF92EF
:10597000FF920F931F93CF93DF93EC018B015A019A
:10598000F9012091220C3091230C4091240C50916C
:10599000250C60817181828193810E9484B80E946C
:1059A0002ABF6B017C0120911E0C30911F0C40918D
:1059B000200C5091210CF5016081718182819381CD
:1059C0000E9484B80E942ABF4B015C0120911A0CEE
:1059D00030911B0C40911C0C50911D0CF801608102
:1059E0007181828193810E9484B80E942ABF2B0119
:1059F0003C012091160C3091170C4091180C5091DD
:105A0000190C688179818A819B810E9484B80E94E7
:105A10002ABF6093BB0C7093BC0C8093BD0C909319
:105A2000BE0C4092BF0C5092C00C6092C10C7092A0
:105A3000C20C8092C30C9092C40CA092C50CB09280
:105A4000C60CC092C70CD092C80CE092C90CF09260
:105A5000CA0C9091B90C8091BA0C981791F0DF9113
:105A6000CF911F910F91FF90EF90DF90CF90BF905B
:105A7000AF909F908F907F906F905F904F900C941D
:105A80002C2C0E94642C0E9453194091C30C5091FD
:105A9000C40C6091C50C7091C60C0091BF0C1091A4
:105AA000C00C2091C10C3091C20CC090BB0CD090A6
:105AB000BC0CE090BD0CF090BE0CC092F504D092EE
:105AC000F604E092F704F092F8040093F9041093BE
:105AD000FA042093FB043093FC044093FD0450939C
